:0F000000020003751401751502751603751704B8
:0E000F00751809751908751A07751B067D0A04
:0F001D001201181201201201281201301200BC2A
:0F002C00B514171200BCB515F41200BCB516EED2
:0E003B001200BCB517E81200E580E3B518E02E
:0F0049001200BCB519DA1200BCB51AD41200BCF3
:0F005800B51BCE1200CD75B070120113B40002AB
:0E00670080F8F514FD12013012013875B060FA
:0E007500120113B4000280F8F515FD120128E7
:1000830012013875B050120113B4000280F8F5164E
:10009300FD12012012013875B040120113B40002A1
:0E00A30080F8F517FD1201181201381201380D
:0E00B1001201381201381200E5012912011364
:1000BF00B4000280F8FD120118120138EC22AD14C1
:0F00CF00120130AD15120128AD16120120AD1728
:0F00DE00120118120138227D0812011812012098
:0E00ED001201281201301201387D0A1201188A
:0F00FB00120120120128120130120138120113D4
:0F010A00B4000280D612013822E590F4FC22EDF9
:10011900540F4400F5B022ED540F4410F5B022ED10
:0F012900540F4420F5B022ED540F4430F5B022AE
:05013800DFFEDEFC22E9
:00000001FF
